S00C000072766D6F6E2E6D6F7443
S31500000000975100009381013917810000130181FF88
S31500000010970200009382021F739052301385C1CD60
S31500000020138601643306A64093050000EF30D03EE8
S31500000030032501009305410013060000EF00D008D8
S31500000040EF1010519302D005730000006F000000FE
S315000000501300000000000000000000000000000087
S31500000060000000000000000000000000000000008A
S31500000070000000000000000000000000000000007A
S31500000080000000000000000000000000000000006A
S31500000090000000000000000000000000000000005A
S315000000A0000000000000000000000000000000004A
S315000000B0000000000000000000000000000000003A
S315000000C0000000000000000000000000000000002A
S315000000D0000000000000000000000000000000001A
S315000000E0000000000000000000000000000000000A
S315000000F000000000000000000000000000000000FA
S3150000010000000000000000000000000000000000E9
S3150000011000000000000000000000000000000000D9
S3150000012000000000000000000000000000000000C9
S3150000013000000000000000000000000000000000B9
S3150000014000000000000000000000000000000000A9
S315000001500000000000000000000000000000000099
S315000001600000000000000000000000000000000089
S315000001700000000000000000000000000000000079
S315000001800000000000000000000000000000000069
S315000001900000000000000000000000000000000059
S315000001A00000000000000000000000000000000049
S315000001B00000000000000000000000000000000039
S315000001C00000000000000000000000000000000029
S315000001D00000000000000000000000000000000019
S315000001E00000000000000000000000000000000009
S315000001F000000000000000000000000000000000F9
S31500000200130101FD232011002322A1002324B100A4
S315000002102326C1002328D100232AE100232CF10044
S31500000220232E8100232091022322510223246102DE
S315000002302326710213050100F3252034732610349A
S31500000240EF109038832001000325410083258100AB
S315000002500326C1008326010103274101832781016B
S315000002600324C10183240102832241020323810264
S315000002708323C10213010103730020300000000034
S3150000028000000000130141FF2324110023228100F6
S3150000029023209100B707FFFF130700FF2380E7180D
S315000002A013040000B704FFFF83C704189397870160
S315000002B093D7874163D8070213041400EF10105434
S315000002C0E30405FEEF20005FB707FFFF83C50718AD
S315000002D01306040093F5F50F374500001305054294
S315000002E0EF2050631305040083208100032441009E
S315000002F0832401001301C10067800000130141FF40
S31500000300232411002322810023209100B707FFFF39
S31500000310130700FF2384E71813040000B704FFFF48
S3150000032083C784189397870193D7874163D80702B9
S3150000033013041400EF10904CE30405FEEF208057E1
S31500000340B707FFFF83C587181306040093F5F50F5B
S315000003503745000013058543EF20D05B13050400E5
S315000003608320810003244100832401001301C1007E
S3150000037067800000B707FFFF1307F0002380E71828
S315000003801305000067800000B707FFFF1307F000A2
S315000003902384E7181305000067800000130141FF5E
S315000003A023241100EF10D01903A781CE23A4A1CED8
S315000003B03305E540832081001301C10067800000FA
S315000003C0B707FFFF83A7070493D70701D3F717D013
S315000003D003A701C4D3F7E71003A741C4D3F7E7087F
S315000003E003A781C45317F7A0630807021307400049
S315000003F023A2E1CE83A741CE13971700B75700007B
S31500000400938707B9B387E70003D70700B707FFFF4E
S3150000041023A0E7046780000003A7C1C45317F7A011
S31500000420630807001307300023A2E1CE6FF09FFC9C
S3150000043003A701C55317F7A0630807001307200099
S3150000044023A2E1CE6FF01FFB03A741C5D317F7A088
S31500000450638807001307100023A2E1CE6FF09FF90F
S3150000046023A201CE6FF01FF983A741D0938717000F
S3150000047093064006B3F7D70223A2F1D083A741D053
S3150000048063960706130141FF2324110003A701D039
S315000004901307170023A0E1D083A701D093F7170015
S315000004A0638C070083A701D01307A000B3F7E70208
S315000004B0130750006372F70213050000EF10C07DAA
S315000004C083A701D093F7F700638E0700832081008E
S315000004D01301C1006780000013050000EF1080794A
S315000004E06FF01FFEEFF0DFED6FF05FFE678000003C
S315000004F0130141FF23241100130600019305000098
S31500000500EF309070832081001301C10067800000E6
S31500000510130141FE232C1100232A81002328910078
S315000005202326A1002324B100130705012320E1009F
S31500000530930705112322F1006F00000793040400BE
S3150000054083C50400B747000013854746EF20903C5B
S315000005509384140083270100E394F4FE9304E005DA
S315000005606F004001EF2000171304140083270100D9
S31500000570630EF40003450400930705FE93F7F70F97
S31500000580E3F2F4FE1305E0026FF0DFFD1305A000B1
S31500000590EF20401483270100938707012320F100F1
S315000005A0032741006382E70483270100138407FFC2
S315000005B093050400B747000013854745EF209035A3
S315000005C083278100E38C07F6B744000083250400E7
S315000005D01385C445EF20103413044400832701001B
S315000005E0E316F4FE6FF09FFA1305A000EF20800ECD
S315000005F08327C1001385071083208101032441014D
S31500000600832401011301C10167800000635CB0000F
S315000006109307000013054500232EF5FE9387170068
S31500000620E39AF5FE67800000130181FE232A11007C
S315000006302328810023269100B707FFFF03A4C731B3
S3150000064023208100EFF09FD58327401123AEF1CE02
S315000006506388071203270010B707FFFF23A2E730BE
S315000006600327401023A4E7300327801023A6E73092
S315000006700327C01023A8E7300327001123AAE73079
S31500000680832480118327C0122322F10083270013BD
S315000006902324F10083234013832280130325C013F0
S315000006A0B382A2021303F4FF3303530033438302DE
S315000006B02322601463940400232800149307001275
S315000006C03706FFFF1306062E930500173387C7006C
S315000006D083A607002320D70093874700E398B7FE39
S315000006E0B707FFFF23A8574483274100032781004C
S315000006F0B387E7026384040093031000B383F30215
S315000007003707FFFF232A7744B38762009387F7FFF3
S31500000710B3C76702232CF7449307F0002300F718AA
S3150000072083270100635EF002B7C7FF3F93878711F7
S315000007303304F4001314240013070746930600003D
S31500000740B3C7A6029397070133E6A602B3E7C7002D
S315000007502320F700B386660013074700E312E4FE82
S31500000760B707FFFF1307102023A0E73083204101BE
S31500000770032401018324C100130181016780000065
S31500000780EF10005C83A701CEB307F54023AAF1CE94
S3150000079023A0A1CE23A601CE23A801CE6FF09FEB06
S315000007A0130141FF232411002322810023209100FD
S315000007B0B706FFFF1307000483C7061893F7F70F62
S315000007C0E39CE7FE03A7C1CF83A781CF630EF7089B
S315000007D0B707FFFF130700FF2380E71823800718DA
S315000007E0B706FFFF1307000483C7061893F7F70F32
S315000007F0E39CE7FE3707FFFF0326074083A701CFE9
S31500000800B387C70023A8F1CE8326474083A7C1CE6E
S31500000810B387D70023A6F1CE83A4C1CFEFF01FB8CC
S3150000082093942400938781D5B387970023A0A700CC
S3150000083083A7C1CF1307E0076354F7009307E007C8
S315000008409387170023AEF1CEB707FFFF23A2073227
S31500000850232E0010832081000324410083240100FD
S315000008601301C10067800000B707FFFF13071000E0
S3150000087023A2E7326FF0DFF5130141FF23241100B5
S31500000880B707FFFF83A7073093F70710639E07009C
S315000008908327001F93F717006390070283208100C8
S315000008A01301C10067800000EFF09FEFB707FFFF5D
S315000008B023A007306FF0DFFDEFF01FD723220008DB
S315000008C02328001E6FF09FFD1301C1FD2320110296
S315000008D0232E8100232C91008327000F63980700A5
S315000008E0B7E7F505938707102328F00E8327000F37
S315000008F0D3F717D023A8F1CC03A781C55377F718F0
S31500000900232AE10003A5C1C5D3F7A71803A501C68D
S3150000091053F5A700531505C0EF10406003A501CDA0
S3150000092083A741C65375F510531505C0EF10003A5D
S3150000093013058046EF10805913051000EF10803321
S31500000940B707FFFF03A6C73183A501CD83A781C6DD
S31500000950D3F5F510374500001305C546EF20807B1B
S3150000096013051000EF10403337250000130545B876
S31500000970EF20500F23280100232001006F004001C3
S315000009809305000003250100EFF09FB82320A10086
S3150000099013058046EF108053371500001305858731
S315000009A0EF10C0533745000013050549EF20D02C42
S315000009B0130405001305A000EF10D051B745000041
S315000009C09385854913050400EF20007F1304050075
S315000009D093050500374500001305C549EF30803102
S315000009E063100502B745000093858549EF20C07C5A
S315000009F0E30805F8EFF0DFAF2320A1006FF05FF802
S31500000A0093050400374500001305054AEF30802E94
S31500000A10630E051093050400374500001305454A8B
S31500000A20EF30402D630E0512930504003745000094
S31500000A301305454DEF30002C63020518930504009D
S31500000A40374500001305854DEF30C02A630C0516A7
S31500000A50930504003745000013054550EF30802903
S31500000A60630405229305040037450000130545512C
S31500000A70EF30402863060522930504003745000041
S31500000A8013054552EF300027630C05229305040039
S31500000A903745000013054556EF30C025630E052681
S31500000AA0930504003745000013054557EF308024B1
S31500000AB0630E052A93050400374500001305055902
S31500000AC0EF304023630A052C9305040037450000E8
S31500000AD01305055AEF3000226302052E9305040024
S31500000AE0374500001305455AEF30C020630605342C
S31500000AF0930504003745000013058557EF30801F26
S31500000B002322A100630E0534930504003745000037
S31500000B101305C562EF30001EE31C05E637450000ED
S31500000B2013050563EF1010406FF09FE6B745000010
S31500000B3093858549EF20406863060500EFF05F9BCB
S31500000B402320A100EF10C022930510000325010009
S31500000B50EFF01F9C2320A100EF1080206FF05FE3D1
S31500000B60B745000093858549EF20006563060500BB
S31500000B70EFF01F982320A100B74500009385854913
S31500000B8013050000EF20406313040001630605000F
S31500000B90EFF01F96130405009305040003250100DA
S31500000BA0EFF0DFA613060400832501003745000099
S31500000BB01305854AEF2000566FF09FDDEF00C04019
S31500000BC06FF01FDD3707FFFF8327070493D7070161
S31500000BD0D3F717D083A601C4D3F7D71083A641C491
S31500000BE0D3F7D7082322F1008327470493D70701B9
S31500000BF0D3F717D083A6C1C6D3F7D7102324F100A5
S31500000C008327870493D70701D3F717D0D3F7D710D5
S31500000C102326F1000324870513540401537414D0CA
S31500000C205374D410B745000093858549EF20C0580A
S31500000C3063040502EFF0DF8B239EA1CCB7450000CD
S31500000C409385854913050000EF20005703D7C1CDD2
S31500000C50B707FFFF23A0E704B707FFFF83A5070435
S31500000C6093954501930704000327C100832681005D
S31500000C700326410093D54501374500001305C54DB0
S31500000C80EF2040496FF0DFD0EFF0CFDF930505008E
S31500000C903745000013058550EF20C0476FF05FCF42
S31500000CA0B707FFFF1307F0002380E718930500003E
S31500000CB03745000013058551EF20C0456FF05FCD25
S31500000CC03704FFFF8325443037450000130585525E
S31500000CD0EF204044832584303745000013054553F3
S31500000CE0EF2040438325C4303745000013050554E3
S31500000CF0EF20404283250431374500001305C554D3
S31500000D00EF204041832544313745000013058555C2
S31500000D10EF2040406FF0DFC7B74500009385854957
S31500000D20EF20804963080500EFF08FFCB707FFFF4F
S31500000D3023A0A732B7450000938585491305000017
S31500000D40EF20804763080500EFF08FFAB707FFFF33
S31500000D5023A2A732B707FFFF83A507323745000056
S31500000D6013058556EF20003B6FF09FC2B745000084
S31500000D7093858549EF20404463060500EF205068BF
S31500000D8023ACA1CE83A581CF374500001305C557F7
S31500000D90EF2040386FF0DFBF832701011384C7FFC0
S31500000DA003A6C7FF93050400374500001305455900
S31500000DB0EF204036232881006FF09FBDB745000025
S31500000DC093858549EF20403F630E050003470500E4
S31500000DD093070004630AF702EFF08FF183270101FE
S31500000DE023A0A700032401010326040093050400A1
S31500000DF03745000013054559EF20C03193074400DD
S31500000E002328F1006FF0DFB813051500EFF04FEE61
S31500000E10130405002328A100B745000093858549E2
S31500000E2013050000EF204039E30E05FAEFF04FEC12
S31500000E302320A4006FF01FFB83A541CFD3F515D067
S31500000E4083274101D3F5F51003A681C55376B6185D
S31500000E50374500001305855AEF20C02B6FF05FB3AE
S31500000E60EFF0CFD303A6C1CF938781D503274100E7
S31500000E70130400006F00400183A607003304D4006A
S31500000E801307170093874700E358E6FE6F00000438
S31500000E908326410013972600938781D5B387E70001
S31500000EA003A60700537616D0832741015376F61022
S31500000EB093850600374500001305855CEF208025E5
S31500000EC083264100938716002322F10083A7C1CF12
S31500000ED003274100E3DEE7FA03A7C1CE537707D025
S31500000EE083A601CFD3F606D0537614D083A541CF7F
S31500000EF0D3F515D00324410153778710D3F6861016
S31500000F0053768610D3F58510374500001305855DA9
S31500000F10EF204020EFF08FC8D37515D0D3F585109C
S31500000F203745000013058561EF20C01E6FF05FA6F0
S31500000F3083A741CD37F501001305D53133E5A70267
S31500000F40374700001307771A3305E5023717FEFF08
S31500000F50130737CEB3C7E70237170000130747B1A9
S31500000F60B387E7023305F5006356A00023AAA1CC98
S31500000F7067800000B707008093C7F7FF3305F500C9
S31500000F806FF0DFFE83A781D0939717003707000124
S31500000F9033F7E7006316070023A4F1D06F00400182
S31500000FA03707000113077708B3C7E70023A4F1D07A
S31500000FB003A581D0131565001355650067800000F1
S31500000FC023A4A1D067800000130181FE232A11000B
S31500000FD0232881002326910013051000EF00904975
S31500000FE0374500001305856FEF20C0123704004017
S31500000FF093040000B70701009387F7FF2320F10051
S315000010006F004002374500001305456FEF20801042
S315000010109384140013044400B7470F0093870724F2
S31500001020638AF402930504002320840083270100C9
S31500001030B3F7F400E39E07FCB7073F00B3F7F400ED
S31500001040E39207FC374500001305C572EF20800CBC
S315000010506FF05FFBEFF08FAA13051000EF00D0438F
S3150000106013052000EF001041B7450F0093850524B6
S315000010703745000013054573EF20C0092322010000
S315000010809304000013040000B70701009387F7FFDD
S315000010902324F1006F000004374500001305C572D4
S315000010A0EF2040076F008006374500001305056FE7
S315000010B0EF20400683274100B38797002322F100E3
S315000010C08324010013041400B7470F0093870724F5
S315000010D06306F40493152400B7070040B385F500B2
S315000010E083A70500B387F540B337F000B384F40057
S315000010F083278100B377F4002320F100E39407FCF3
S31500001100B7073F00B377F400E38807F8E39E04F8D7
S31500001110374500001305456F6FF09FF90326410020
S31500001120938507003745000013054576EF10907E3E
S3150000113013052000EF00503613051000EF00903322
S315000011403745000013050578EF10D07C1307100013
S3150000115023AAE1CC13040000B70401009384F4FF32
S315000011606F000002374500001305456FEF10907AB7
S3150000117013041400B7470F0093870724630EF40285
S31500001180EFF01FDB93152400B7070040B385F50089
S3150000119023A0A500B3779400E39C07FCB7073F00A4
S315000011A0B377F400E39007FC374500001305C572DA
S315000011B0EF1050766FF01FFBEFF04F941305100001
S315000011C0EF00902D13052000EF00D02AB7450F0041
S315000011D0938505243745000013054573EF1090737A
S315000011E01307100023AAE1CC232201009304000078
S315000011F013040000B70701009387F7FF2324F100CB
S315000012006F000004374500001305C572EF1090709B
S315000012106F00C006374500001305056FEF10906F8D
S3150000122083274100B38797002322F100832401001E
S3150000123013041400B7470F00938707246308F404C8
S31500001240EFF01FCF93152400B7070040B385F500D4
S3150000125083A70500B387A740B337F000B384F40033
S3150000126083278100B377F4002320F100E39207FC83
S31500001270B7073F00B377F400E38607F8E39C04F86A
S31500001280374500001305456F6FF05FF903264100EF
S31500001290938507003745000013054576EF109067E4
S315000012A013052000EF00501F374500001305857A0F
S315000012B0EF10506613040000B70401009384F4FF96
S315000012C06F000002374500001305456FEF1090646C
S315000012D013041400B7470F0093870724630AF40228
S315000012E0B7050040B305B40023808500B3779400AA
S315000012F0E39007FEB7073F00B377F400E39407FCDB
S31500001300374500001305C572EF10D0606FF09FFBE4
S31500001310EFE0DFFEB7450F00938505243745000053
S315000013201305C57DEF10105F232201009304000012
S3150000133013040000B70701009387F7FF2324F10089
S315000013406F000004374500001305C572EF10905C6E
S315000013506F008006374500001305056FEF10905BA0
S3150000136083274100B38797002322F10083240100DD
S3150000137013041400B7470F00938707246306F40489
S31500001380B7050040B305B40083C705001377F40F13
S31500001390B387E740B337F000B384F40083278100B6
S315000013A0B377F4002320F100E39407FCB7073F006E
S315000013B0B377F400E38807F8E39E04F837450000A6
S315000013C01305456F6FF09FF90326410093850700CB
S315000013D03745000013054576EF10D053375500000A
S315000013E013058580EF1010531307100023AAE1CCD4
S315000013F013040000B70401009384F4FF6F00000299
S31500001400374500001305456FEF10D0501304140044
S31500001410B7470F0093870724630CF402EFF05FB120
S31500001420B7050040B305B4002380A500B377940048
S31500001430E39E07FCB7073F00B377F400E39207FC8F
S31500001440374500001305C572EF10D04C6FF05FFBF7
S31500001450EFE0DFEAB7450F00938505243745000026
S315000014601305C57DEF10104B1307100023AAE1CC1E
S31500001470232201009304000013040000B7070100B3
S315000014809387F7FF2324F1006F000004374500001F
S315000014901305C572EF1010486F00C00637450000EF
S315000014A01305056FEF10104783274100B387970098
S315000014B02322F1008324010013041400B7470F0010
S315000014C0938707246308F404EFF09FA6B70500404E
S315000014D0B305B40083C705001375F50FB387A7409E
S315000014E0B337F000B384F40083278100B377F400A8
S315000014F02320F100E39207FCB7073F00B377F4001F
S31500001500E38607F8E39C04F8374500001305456FAA
S315000015106FF05FF903264100938507003745000009
S3150000152013054576EF10103F375500001305058368
S31500001530EF10503E1307100023AAE1CC130400005D
S31500001540B70401009384F4FF6F00000237450000E2
S315000015501305456FEF10103C13041400B7470F0036
S3150000156093870724630EF402EFF09F9C93151400F3
S31500001570B7070040B385F5002390A500B377940024
S31500001580E39C07FCB7073F00B377F400E39007FC42
S31500001590374500001305C572EF10D0376FF01FFBFB
S315000015A0EFE0DFD5B7450F009385052437550000DA
S315000015B013058585EF1010361307100023AAE1CC1A
S315000015C0232201009304000013040000B707010062
S315000015D09387F7FF2324F1006F00000437450000CE
S315000015E01305C572EF1010336F0000073745000072
S315000015F01305056FEF10103283274100B38797005C
S315000016002322F1008324010013041400B7470F00BE
S3150000161093870724630AF404EFF09F91931514004F
S31500001620B7070040B385F50083D70500032781007F
S315000016303375E500B387A740B337F000B384F400F1
S31500001640B377E4002320F100E39007FCB7073F00DF
S31500001650B377F400E38407F8E39A04F8374500000B
S315000016601305456F6FF01FF90326410093850700A8
S315000016703745000013054576EF10D0293755000091
S3150000168013058588EF1010291307100023A4E1D055
S3150000169013040000B70401009384F4FF6F000002F6
S315000016A0374500001305456FEF10D02613041400CC
S315000016B0B7A70700938707126308F404EFF09F8C1F
S315000016C0B70700013365F50013152500B70700407D
S315000016D0B387A70023A0A700B3779400E39807FC7D
S315000016E0B7073F00B377F400E39C07FA931724008B
S315000016F0B7050040B385B700374500001305C5722E
S31500001700EF1050216FF0DFF9EFE05FBFB7A50700DC
S31500001710938505123745000013054573EF10901F9A
S315000017201307100023A4E1D0232201009304000034
S3150000173013040000B70701009387F7FF2324F10085
S315000017406F00800513052000EF0000556F0080072D
S3150000175093172400B7050040B385B700374500004E
S315000017601305C572EF10101B6F0080073745000088
S315000017701305056FEF10101A83274100B3879700F2
S315000017802322F1008324010013041400B7A70700E5
S3150000179093870712630EF404EFF0CFFEB70700013C
S315000017A03365F50013152500B7070040B387A7007A
S315000017B083A70700E308F5F813052000EF00804B28
S315000017C09384140083278100B377F4002320F1006B
S315000017D0E39C07FAB7073F00B377F400E38A07F6FE
S315000017E0E39604F8374500001305456F6FF09FF840
S315000017F0032641009385070037450000130545760B
S31500001800EF10501183204101032401018324C100FC
S315000018101301810167800000130101FD23261102D7
S3150000182023248102232291022320A1001384050090
S3150000183093050700232CE10093840700537707D014
S31500001840D3F7F700D377F718232AF100138705009B
S31500001850B385B5022326B10093971500B385B7006B
S315000018602322B1009357F701B387E70093D71740B8
S31500001870D3F707D02328F10063840600938605007A
S31500001880B307D6002324F100032641009305000088
S3150000189013850700EF204038832741036380071232
S315000018A003270100635AE0201306000083A501C741
S315000018B01385050003A341C783A281C783A7C1C7B8
S315000018C0232EF10083A701C82320F1022320510013
S315000018D0930207006F00000283472700938617F0E4
S315000018E0B336D000B387D7002301F70013061600DE
S315000018F06384C21C832304008327440053F7F30048
S315000019005377B71013044401D326E720D39696A045
S31500001910E38E06FCD3F77708D3F7A710D3A6F720F4
S31500001920D39696A0E38406FC832644FFD303D3A074
S31500001930E38E03FA83230100D39376A0E38803FAA8
S315000019408323410153F7E310832301015377770083
S31500001950531707C08323810133077702832341018D
S31500001960D3F7F31083230101D3F77700D39707C08A
S315000019703307F700931717003387E70083278100A3
S315000019803387E7008327C101D3F7F60083260102D8
S31500001990D3F7D710D39707C083461700E3DEF6F2D6
S315000019A0832684FFA300F70083A741C8D3F7F61068
S315000019B0D39707C02300F7006FF01FF283220100C0
S315000019C0635C500E83A641C703A681C703A5C1C7A2
S315000019D083A501C803A341C8832741032320A1008F
S315000019E0232EB100232061026F0000020347250069
S315000019F0130317F033336000330767002301E50054
S31500001A0093871700638AF20A03270400130444012C
S31500001A105325E720531595A0E30405FE032504FF8F
S31500001A205323A520531393A0E30C03FC032344FF85
S31500001A30D38366A0E38603FCD313C3A0E38203FC2F
S31500001A408323410153F7E310832501015377B70040
S31500001A50531707C0832581013307B70253F5A31037
S31500001A60832501015375B500531505C03307A7003B
S31500001A70131517003307E500832581003385E5003C
S31500001A80032701005377E3008325C1015377B7107D
S31500001A90531707C003431500E35AE3F4032384FFF7
S31500001AA0A300E500032701025377E310531707C08D
S31500001AB02300E5006FF09FF383A701D103270103FD
S31500001AC0D3A7E7A0638807040327810093072700AD
S31500001AD08326C1006356D0028326410093862600E2
S31500001AE0B306D700138681F703C707003307E6005E
S31500001AF0034707002380E70093873700E396D7FE66
S31500001B008320C102032481028324410213010103BD
S31500001B106780000023A8E1D003A581C85375A710EC
S31500001B20EF10506283A441C8D3F4A4181304000034
S31500001B3083A7C1C82320F1006F0000021305F00F30
S31500001B40938781F7B38787002380A70013041400C7
S31500001B5093070010E30AF4F6537504D083270100B7
S31500001B605375F500EF10105E5375951083A741C8A5
S31500001B70D317F5A0E38407FC531515C01375F50FAD
S31500001B806FF01FFC130101FD23261102232481029D
S31500001B9023229102EF0080466316050A8327400C34
S31500001BA0E38A07FE0325800C2328A1000326000CE8
S31500001BB0232AC1008324C00CB38794021394170010
S31500001BC03304F40013141400B3058600232CB1006B
S31500001BD08326000D232ED1008327400D2326F100F6
S31500001BE00324800D0327C00D2320E1022322E100F8
S31500001BF02320810013870400EFF01FC283A7C1D002
S31500001C00639607002322000C6FF0DFF8832701029A
S31500001C102324F100232281008327C1002320F10021
S31500001C20938704000327C10183264101032681010E
S31500001C3083250101375500001305858BEF10804D74
S31500001C406FF05FFC8320C1020324810283244102DA
S31500001C50130101036780000003C5C1D3678000003C
S31500001C601375F50F238EA1D2B707FFFF2380A700B8
S31500001C706780000083C6C1D3930710003395A70081
S31500001C803365D5001375F50F238EA1D2B707FFFF75
S31500001C902380A7006780000083C6C1D39307100086
S31500001CA03395A7001345F5FF3375D500238EA1D2D2
S31500001CB0B707FFFF2380A70067800000B707FFFF75
S31500001CC003C507001375F50F6780000023A4A1D292
S31500001CD0B786FFFF9305000023A0B6001306000099
S31500001CE023A2C60003A681D29357F64123A4C600B9
S31500001CF023A6F60023AC01D29307000873A0473051
S31500001D00678000009307000873B0473067800000C3
S31500001D10B786FFFF1307000023A0E6009307000025
S31500001D2023A2F60003A681D29357F64123A4C60048
S31500001D3023A6F6009307000873A0473067800000CB
S31500001D40B787FFFF03A5070083A54700678000004C
S31500001D5083A581D337550000130545906F10803B4E
S31500001D60B71700009387078073A04730678000008D
S31500001D70B71700009387078073B04730678000006D
S31500001D8023A6A1D26780000083A741D3E38E07FE76
S31500001D9023AA01D267800000635EA00093060000BC
S31500001DA083A741D3E38E07FE23AA01D293861600AA
S31500001DB0E318D5FE6780000023ACA1D2678000003F
S31500001DC003A581D367800000130141FF232411007E
S31500001DD023228100F327403493F707086386070818
S31500001DE083C7C1D33707FFFFB785FFFF93E7070810
S31500001DF0238EF1D22300F70083A781D203A68500A4
S31500001E0083A6C50013D7F7413385C700B337F5005E
S31500001E103307D700B386E70083A741D223A4A500E2
S31500001E2023A6D50063840700E780070083A701D2B5
S31500001E3063840700E780070083A781D39387170091
S31500001E4023ACF1D21307100023AAE1D293070008AE
S31500001E5073A0473083C7C1D33707FFFF93F7F70750
S31500001E60238EF1D22300F700F327403493D7B7002F
S31500001E7093F71700639A070083208100032441002B
S31500001E801301C10067800000EF00800A83A7C1D15B
S31500001E9063840700E780070083A781D16384070076
S31500001EA0E780070083A741D163840700E780070026
S31500001EB0B71700009387078073A0473083208100FF
S31500001EC0032441001301C1006780000023A2A1D2B0
S31500001ED06780000023A0A1D26780000023AEA1D0B6
S31500001EE06780000023ACA1D06780000023AAA1D0A0
S31500001EF06780000023A001D26780000023A201D2E0
S31500001F006780000023AE01D06780000023AC01D0BB
S31500001F106780000023AA01D0678000001315050121
S31500001F2013550541B707FFFF2391A70267800000FD
S31500001F30130141FF23209100232411002322810055
S31500001F40B704FFFF03C4140213051000EFF09FD27D
S31500001F501374F40F137444006308040283C7F1D3A7
S31500001F60138781079387170093F7F70F3307F70057
S31500001F7003470700A38FF1D22380E40203C701D4ED
S31500001F8083C7F1D3630EF700032441008320810049
S31500001F9083240100130510001301C1006FF0DFCF89
S31500001FA0A3800402032441008320810083240100CE
S31500001FB0130510001301C1006FF01FCEB706FFFF17
S31500001FC083C716021387160293F71700E39A07FED4
S31500001FD003C50602834707001375F50F93F717002D
S31500001FE0639C0700930610002300D7008347070071
S31500001FF093F71700E38A07FE67800000B707FFFF25
S3150000200003C517021345F5FF137515006780000019
S315000020103707FFFF8347170293F72700E39C07FE66
S315000020202300A7026780000003C701D483C7F1D34A
S3150000203013067000B387E74093F7F70F637AF6004D
S315000020403706FFFF8347160293F72700E39C07FE38
S31500002050130717001377F70F93878107B387E700F6
S315000020602380E1D42380A70013078000B707FFFF72
S31500002070A380E7026FF0DFCE1305060063080604AF
S31500002080B383C500B706FFFF130310009385150041
S3150000209083C716021387160293F71700E39A07FE03
S315000020A083C206028347070093F2F20F93F71700E5
S315000020B0639A0700230067008347070093F717001A
S315000020C0E38A07FEA38F55FEE39275FC6780000046
S315000020D0130101FF232611002324810023229100EE
S315000020E02320C100630E0600938405003384C500D7
S315000020F003C5040093841400EFF01FF3E39A84FEF3
S315000021008320C100032481000325010083244100AC
S31500002110130101016780000013070500130506007F
S31500002120630206023383C5008327070093851500E3
S31500002130938617002320D70083C70700A38FF5FED9
S31500002140E39465FE6780000013070500130506008B
S31500002150630206023383C5008327070093851500B3
S31500002160938617002320D70083C6F5FF2380D70068
S31500002170E39465FE678000001301C1FC23268102FB
S315000021802328C100130405002328110223249102E9
S315000021902324D10013070102930770001306800061
S315000021A01305F0FF93F6F500A303D70093D545007A
S315000021B013830700B306F640638805009387F7FF8D
S315000021C01307F7FFE390A7FE03260101232AD10098
S315000021D0232C610063060608032781009374170009
S315000021E063900408131727001377070113070702E4
S315000021F063DAC6061377F70F2322E10003270101EE
S31500002200930404009305F1012326F100130407004B
S315000022108327410083A6840003A50400A30FF100D1
S31500002220130610002320B100E78006008325010075
S315000022301304F4FF635AA01283270101B386874073
S3150000224083274101E39687FC032741011384040099
S315000022508327C100938406002328E1006F00C00095
S31500002260930400009305F101032781001303040082
S31500002270138404001377270013371700131757002A
S31500002280130717042324E10013070102B307F7001D
S31500002290130787002326E1009384070003C7040081
S315000022A083278100930667FFB386F60093079000A5
S315000022B01306070393F6F60F63E4E7009376F60F2B
S315000022C00327830003250300A30FD1001306100084
S315000022D0232261002320B100E700070083250100C7
S315000022E003234100938414006350A0088327C10090
S315000022F013041400E394F4FA8327810103270101F0
S3150000230093040400938787FFB387E700B38797009A
S315000023102322F100832741011304030063D6E70655
S31500002320032784000325040093070002A30FF1008E
S31500002330130610002320B100E700070083250100E3
S31500002340938414006352A00283274100E39A97FC0A
S31500002350832001030324C102032541008324810253
S315000023601301410367800000832001030324C10297
S315000023709307F0FF2322F100032541008324810205
S315000023801301410367800000232291006FF05FFC78
S315000023901301C1FC93F7860023281102232681022C
S315000023A0232491022324F1002328C10013030500EE
S315000023B0639A071A63CC051A13056102930200009B
S315000023C09307A0001306900033F7F5021305F5FFF7
S315000023D09383050013840200B3845740938212004E
S315000023E013070703A300E500B3D5F5026378761853
S315000023F0E39CF2FC832783000325030023240100CA
S31500002400232601009305B101032601016300060896
S3150000241013F71600631C07061394260013740401B1
S315000024201304040263D4C2061374F40F232A810032
S3150000243023225100130406009304030003274101DD
S31500002440130610002320B100A30DE100E78007006A
S31500002450832701011304F4FF832501003387874096
S315000024606350A0168326810083A7840003A5040079
S315000024703307D70083264100E39286FC9382060049
S31500002480138304002324E1002328D1000327C1007D
S315000024901304C101232A5100B304E4006F00C000F5
S315000024A0832783000325030083C604001306100058
S315000024B023226100A30DD1002320B100E78007008D
S315000024C00327C10093071000B3878740B387E7400F
S315000024D0032781008325010003234100B387E7001A
S315000024E0B387970093841400635CA00C13077102F2
S315000024F0E31897FA8322410103270101930400029E
S31500002500330457403304F40063D0E20423248100EB
S31500002510138407000327830003250300A30D9100FE
S3150000252013061000232261002320B100E7000700F4
S315000025308325010003234100130414006352A008FD
S3150000254083278100E318F4FC13840700832001032A
S31500002550130504000324C1028324810213014103ED
S3150000256067800000232401006FF01FE59307100029
S31500002570B305B0402324F1006FF01FE40327810068
S31500002580232691008327830003250300E30C07E637
S3150000259013F74600631407043307864013068102C7
S315000025A02326E1003307E6001306D002230AC7FEFE
S315000025B0232401009305B101930224006FF0DFE4A8
S315000025C01304F0FF83200103130504000324C10252
S315000025D08324810213014103678000001307D002A0
S315000025E09305B101A30DE10013061000232AD100C3
S315000025F0232261002320B100E7800700E352A0FCFC
S31500002600032341008325010083264101832783009C
S3150000261003250300930224006FF01FDF130101FF5F
S315000026202324810083A785001304050003A5050064
S3150000263023261100A3018100130610009305310023
S31500002640E7800700635CA0008320C1001305040037
S315000026500324810013010101678000001304F0FFC9
S315000026606FF09FFE8347050063820706130101FF93
S315000026702324810023229100232611009384050040
S315000026801304150003A7840003A50400A301F100A9
S31500002690130610009305310013041400E700070029
S315000026A06352A0028347F4FFE39E07FC1305000074
S315000026B08320C1000324810083244100130101010A
S315000026C0678000001305F0FF6FF09FFE1305000002
S315000026D067800000B7570000130101FF9387C7B951
S315000026E02324810003A787001304050003A5070020
S315000026F023261100A3018100130610009305310063
S31500002700E7000700635CA0008320C10013050400F6
S315000027100324810013010101678000001304F0FF08
S315000027206FF09FFE1301C1FE2328110023268100AE
S315000027302324910083470500638C07063757000062
S3150000274013041500930571009304C7B983A684008A
S3150000275003A50400A303F100130610002320B10013
S31500002760E780060083250100130414006356A000C9
S315000027708347F4FFE39C07FC83A7840003A50400BA
S315000027801307A000A303E10013061000E78007006B
S315000027909307A0006356A002832001010324C10011
S315000027A0832481001385070013014101678000001F
S315000027B037570000930571009304C7B96FF0DFFB2C
S315000027C09307F0FF6FF05FFD3386C50283A74600CF
S315000027D09305050003A50600678007003386C5023A
S315000027E083A786009305050003A5060067800700FA
S315000027F08327450003250500130101FF2326110049
S315000028001306100093053100E7800700635AA00005
S31500002810034531008320C1001301010167800000D8
S315000028201305F0FF6FF01FFF130181FE232A11002D
S3150000283023288100232691002322A1006358B00695
S31500002840B307B50093040600130405002320F10026
S315000028506F00C000832701006388870203A7440036
S3150000286003A50400130610009305B1001304140019
S31500002870E70007006358A0020347B1009307A000D2
S31500002880A30FE4FEE318F7FC032541002300040030
S3150000289083204101032401018324C1001301810126
S315000028A067800000130500006FF09FFE03244100BF
S315000028B06FF09FFDB75700009387C7B903A747007E
S315000028C003A50700130101FF2326110013061000BC
S315000028D093053100E7000700635AA0000345310065
S315000028E08320C10013010101678000001305F0FF7A
S315000028F06FF01FFF1301C1FB23201104232E810259
S31500002900232C910283C705002322C100638A077620
S315000029109384150013840400138705002320010007
S31500002920130300009304050093065002638CD7043A
S3150000293003A7840003A504002304F1021306100074
S3150000294093058102E70007006356A01613070400EB
S3150000295013031000130417008326010083470700A2
S31500002960B38666002320D100E39007FC8320010490
S315000029700324C103032501008324810313014104B9
S3150000298067800000834617009307C006638AF60C2B
S315000029909307D002638EF60C930700036386F63C1A
S315000029A01307270013040000138606FD9373F60F22
S315000029B01305900093070000930590006364750269
S315000029C08346070013952700B307F5009397170072
S315000029D0B307F600138606FD1375F60F13071700E7
S315000029E0E3F0A5FE1306E00293050000638CC632F1
S315000029F013068007E360D6F6130670056376D602E3
S31500002A00938686FA93F6F60F13060002E364D6F46D
S31500002A1037560000939626001306C691B386C60065
S31500002A2083A6060067800600638806349307500273
S31500002A30E392F6F283A7840003A504002304D102DF
S31500002A4013061000930581022324E100E7800700A6
S31500002A50032781006350A006130310006FF09FEF59
S31500002A608346270013040000130737006FF0DFF3D7
S31500002A708346270013041000130737006FF0DFF2B8
S31500002A802324E10003274100930604008325070061
S31500002A90138607001385040013044700EFF0CFEDFB
S31500002AA00327810013030500232281009307F0FF0B
S31500002AB0E312F3EA832001040324C1039307F0FF22
S31500002AC02320F1000325010083248103130141041F
S31500002AD0678000008326410003A506009386460012
S31500002AE0232AD1002324A100638E0728937614009D
S31500002AF02326D100639E06542328E1002322F100F9
S31500002B00EF00407383274100032701016352F55C00
S31500002B10930681022322D1002326F100232CE10013
S31500002B202328A1001384070003A7840003A504003B
S31500002B3083254100930700022304F10213061000C7
S31500002B40E7000700E358A0F68327C1001304F4FF4B
S31500002B503387874083270101E39887FC2326E1001A
S31500002B601303040003278101930704006F0000226A
S31500002B708326410003A6060093864600232AD10039
S31500002B806384055013030000930610001395260076
S31500002B90B306D5001303130093961600E318B3FE8D
S31500002BA0130500005315A6A0D3F606D0631C052C0A
S31500002BB0D3F6C61003A601C693020000D3F6C600DC
S31500002BC0D39606C09300C00013054103B380B040FE
S31500002BD01306C0001303A000B3E5660293030600C4
S31500002BE01306F6FF938505032300B500B3C66602F8
S31500002BF0630A16421305F5FFE31006FE9306E0008E
S31500002C00B38376401303E0FF638C072E937614009C
S31500002C102326D1006396062E63D6F32E138407006F
S31500002C20930571022326F1002328610023247100F5
S31500002C30232CE10083A6840003A504009307000269
S31500002C40A303F102130610002322B100E780060059
S31500002C5083254100E350A0E68327C1001304F4FF57
S31500002C60B386874083278100E316F4FC0323010122
S31500002C70032781012326D100938307006F00C02814
S31500002C802324E1000327410093060400832507005F
S31500002C90138607001385040013044700EFF04FEF77
S31500002CA00327810013030500232281006FF01FE034
S31500002CB08327410003A504001306100003A40700A0
S31500002CC083A7840093058102230481022324E10063
S31500002CD0E780070083274100032781001374F40F60
S31500002CE093874700E358A0DC130304006354800075
S31500002CF0130310002322F1006FF0DFC52324E10047
S31500002D000327410093662400832507006FF05FD8F0
S31500002D102324E100032741009366840083250700EE
S31500002D206FF01FF78346070013059000130717007F
S31500002D30138606FD9373F60FE36C75CA9303900032
S31500002D408346070013952500B305B5009395150036
S31500002D50B305B600138606FD1375F60F13071700A5
S31500002D60E3F0A3FE6FF0DFC883462700130440009C
S31500002D70130737006FF05FC3130407001307F7FF4D
S31500002D806FF09FBD232601001303000083268100F8
S31500002D9003C60600138416006302063293068102F8
S31500002DA02322D10083268100232CF100938704007F
S31500002DB0B306D340930404002328D100232EE10058
S31500002DC0138407000327840003250400832541009C
S31500002DD02304C10213061000E7000700E35CA0CC41
S31500002DE08327C1000327810003C604003387E74019
S31500002DF08327010133079700B38597009384140056
S31500002E00E31206FC832781011303070093040400E1
S31500002E100327C10163D2F52AB307F300B387B7408E
S31500002E202326F10013040002938704002328E100FF
S31500002E309304030003A7870003A507008325410029
S31500002E4023048102130610002324F100E700070083
S31500002E5083278100E350A0C60327C1009384140092
S31500002E60E39AE4FC0327010113830400938407001B
S31500002E7083274101130417002322F1006FF0DFAD11
S31500002E8083A6C1C8D3F6C61003A601C693021000D6
S31500002E9093031000D376D6081303C000D39606C05A
S31500002EA0E39205D21306A00033E5C602B3C6C602F6
S31500002EB01306810313050503330666002308A6FEE1
S31500002EC0638E061213068102B30566009300A00006
S31500002ED06F00400233E616029385F5FF1385130053
S31500002EE0B3C61602130606032380C500638C0610BC
S31500002EF0930305001303F3FFE31E03FC6FF0DFD01B
S31500002F002326010093057102930681022322D10034
S31500002F10B386660013840400232CF1002328610085
S31500002F20232E7100938406002320E10203C60400C9
S31500002F308327840003250400A303C102130610009F
S31500002F402324B100E780070083258100E354A0B65F
S31500002F500327410093071000B387E74003270101C9
S31500002F60B387E7400327C100B387E700B38797001D
S31500002F701307510393841400E31A97FA8323C101BC
S31500002F8093040400138407008327810103270102A9
S31500002F90338377403303830063DCF31093870400A5
S31500002FA023246100930404002326E1001384070010
S31500002FB0832684000325040093070002A303F1027D
S31500002FC0130610002322B100E78006008325410086
S31500002FD0E352A0AE8327810093841400E39AF4FCA5
S31500002FE00327C100138307009304040083274101CC
S31500002FF0130417002322F1006FF01F9613850300B8
S3150000300093830500638A02061303F3FF9306810385
S31500003010B38666001306D0022388C6FE9383230078
S315000030206FF09FBE930581033386C5009305E002CA
S315000030302308B6FE1383E3FF9305E000B3857540CE
S31500003040635C60081306F000B30376406FF09FE5FB
S3150000305083268100232601001303000003C6060011
S3150000306013841600E31C06D2930681029305000022
S315000030702322D1006FF05FDA930305006FF0DFB80B
S31500003080232001006FF09F8E93060000D316D6A072
S31500003090E39806DE83A601C69302000093031000A0
S315000030A0D3F6C6001303C000D39606C06FF09FDFA9
S315000030B0130304006FF09FF3232661008327410169
S315000030C00323C100130417002322F1006FF0DF88E9
S315000030D0130305006FF09FCB938305006FF0DFB2FB
S315000030E0130101FE130301012328C1001306030087
S315000030F023261100232AD100232CE100232EF100E0
S3150000310023206100EFF00FFF8320C10013010102AD
S31500003110678000001301C1FD130301012328B100DC
S315000031209305050037550000232AC1001305C5B9CC
S315000031301306030023261100232CD100232EE100C1
S315000031402320F10223206100EFF0CFFA8320C10093
S315000031501301410267800000130101FD2326F102DD
S31500003160B727000093878711130301022326F10076
S31500003170B72700002320A1002320C10293878714CC
S315000031801305810013060300232E11002328F100E6
S315000031902322D1022324E1022324210023226100D9
S315000031A0EFF04FF583270100238007008320C1013C
S315000031B013010103678000006306050683460500C8
S315000031C0938705006F0080006382E60403C707004B
S315000031D093871700E31A07FE6386060213060500A7
S315000031E0938705006F0080006306D70203C70700B8
S315000031F093871700E31A07FE834616001306160088
S31500003200E39006FE23A201D4678000001305150093
S315000032106FF0DFFA9307160023A2F1D4230006000D
S315000032206780000003A541D4E31A05F813050000E2
S315000032306780000083470500930605006380070248
S3150000324093070000938717003387F60003470700AC
S3150000325013850700E31807FE6780000013050000CA
S315000032606780000023A4A1D467800000130101FF3A
S315000032702322910083A401D5232611002324810053
S315000032806356900693878117138604002320F10066
S315000032906F00800003A601D503A741D5B7570000EC
S315000032A0B30590401385079A130707019387050016
S315000032B063549600B307C040B307F70013D7F7412E
S315000032C01357C701B387E70093F7F700B387E740C3
S315000032D003270100939727009384F4FFB307F700B1
S315000032E003A60700EFF01FE3E39604FA8320C1006C
S315000032F0032481008324410013010101678000003B
S3150000330083470500638A0714B756000013060500B5
S3150000331013070500938656A26F00C0008347070077
S3150000332063820714B387F60083C7070013071700E5
S3150000333093F78700E39407FE83A701D51301C1FE27
S315000033402328110023268100232491002320F10045
S31500003350B306F0406344F01003A441D5938481176B
S3150000336093070401B387D70093D6F74193D6C601D6
S31500003370B387D70093F7F700B387D7409397270013
S31500003380B387F40083A50700130506002322C100B6
S31500003390EF0050166308050A0326410013050600D0
S315000033A0EFF05FE993172400B387F4009306150046
S315000033B09305400803A307000326410063F6D500E2
S315000033C0230206089306500893050600130503001A
S315000033D02322D100EF00D02983A5C1D48326410042
S315000033E0230205081306B037B386B600634ED60629
S315000033F09385040423A6D1D4B385D5001304140001
S315000034009357F44113D6C7013304C4009377F400ED
S31500003410B387C740139627003387D4003386C4008A
S315000034208324010023AAF1D42320B6002300070435
S315000034309307F00063D497009304F000938414007C
S3150000344023A891D4832001010324C1008324810091
S315000034501301410167800000678000009306F0FFBA
S315000034606FF09FEF6780000023A601D493850404C4
S31500003470930600006FF09FF81301C1FD232E810013
S3150000348023201102232C9100130405000345050097
S3150000349013041400630A050013041400EFF08FA34D
S315000034A00345F4FFE31A05FE83A741D583A6C1D4DD
S315000034B0138681179397270013070604B307F600B0
S315000034C03307D70023A0E7009384815BB75700003A
S315000034D09387D79A2322C10023000644232601009E
S315000034E02324F100032481001305B0011304140002
S315000034F0EFF04F9E0345F4FFE31A05FE9387815BC9
S3150000350063FC970013058000EFF0CF9C9384F4FFD3
S315000035109387815BE398F4FE83A781D463840700D5
S31500003520E7800700EFF00FB99377F50F1307B001A7
S315000035301374F50F6346F706638807066366F70696
S31500003540B7560000139727009386469B3307D7008C
S31500003550032707006700070093841400EFF08F9796
S3150000356003C50400E31A05FE9307A000630AF400EE
S315000035709387815BB387F44013071008E35EF7F87F
S315000035801385815BEFF0DFD7832001020324C1019D
S31500003590832481011385815B13014102678000004A
S315000035A01307F007638EE71A37570000130757A271
S315000035B03387E7000347070013777709E30607FA1F
S315000035C003C60400138714002320E100631C0624AD
S315000035D023808400A380040013850700EFF08F8FFB
S315000035E0832401006FF05FF813074004E39EE7F6BB
S315000035F09387815BE3FA97F613058000EFF08F8DD2
S315000036009384F4FF6FF05FF603C50400E30E05F440
S3150000361093841400EFF00F8C6FF01FF59387815B96
S31500003620E3F497F413058000EFF0CF8A9384F4FF58
S315000036309387815BE398F4FE9307A000E31EF4EC06
S315000036406FF01FF483A781D463840700E780070027
S31500003650EFF04FA61374F50F9307F0046306F4001A
S315000036609307B005E312F4F083A781D463840700BF
S31500003670E7800700EFF00FA49377F50F13073004E8
S315000036801374F50FE382E7F8E340F7F61307100427
S31500003690638EE72213072004E398E7EC9387815BA8
S315000036A063FC970013058000EFF0CF829384F4FF4C
S315000036B09387815BE398F4FE03A441D58327C10079
S315000036C0639C07140327410093172400B307F700F0
S315000036D003A507009385815BEF0080791307F0FF50
S315000036E083A701D5130717002326E100B307F0408F
S315000036F063D4E7009307070013070401B387E700C5
S3150000370013D7F7411357C701B387E70093F7F700BD
S31500003710B387E7400327410093972700B307F700D5
S3150000372083A507001385815BEF0080748327410022
S3150000373003C507449384815BE30605DA938414008A
S31500003740EFE05FF903C50400E31A05FE6FF09FD9A9
S315000037501305A000EFE01FF8EFF05FB16FF0DFE0B8
S315000037609387815BE3F297E083C7F4FF1387F4FF47
S315000037702328E100639007129387E4FF238F04FE5A
S31500003780130580002320F10083240101EFE09FF45C
S31500003790832701001307000003C507006302051213
S315000037A0232A81001304070023208100EFE09FF203
S315000037B013041400B387840003C5F7FFE31605FE60
S315000037C0130704000324410183248100232A810076
S315000037D01305B001138404009304070013041400B6
S315000037E0EFE05FEF0345F4FFE31A05FE0324410112
S315000037F063860414032401009304F0FF1304F4FF0A
S3150000380013058000EFE01FEDE31A94FE0324410147
S31500003810832401016FF05FD50327C100E35007EC55
S315000038206FF01FEC13870700938604006F0080007B
S3150000383003C606002380E6001307060093861600DB
S31500003840E31806FE2380060013850700EFE09FE8D5
S3150000385003C5140093842400630A050093841400AE
S31500003860EFE05FE703C5F4FFE31A05FE0325010059
S31500003870EFF05F9C93040500E30405D69384F4FF00
S3150000388013058000EFE01FE5E39A04FE83240100A0
S315000038906FF09FCD1305070093850400EF00405D90
S315000038A09387F4FF130580002320F100EFE09FE2E9
S315000038B0832701001307000003C50700E31205EE86
S315000038C09307F0FF2320F1006FF01FF09387815BD1
S315000038D063FC970013058000EFE0DFDF9384F4FFBD
S315000038E09387815BE398F4FE03A441D58327C10047
S315000038F06388070283A701D58326C1001304040148
S31500003900B307F04033A7D7003387E6402326E1000C
S3150000391063D4E70093070700B307F4006FF05FDE98
S315000039200327410093172400B307F70003A50700F8
S315000039309385815BEF00C0536FF0DFFB83240101A9
S315000039406FF09FC2130141FF23228100232411003F
S3150000395013040500EF008006D32784A063860702C0
S3150000396093070000539787A0631007025324F4A01F
S3150000397063040402EFC0CFED9307050003A501C958
S315000039801307200223A0E7008320810003244100BF
S315000039901301C10067800000EFC08FEB03244100D4
S315000039A083208100930710022320F500374500008D
S315000039B01305C5581301C1006F0000241317150025
S315000039C0630C0708930705006340050A3707807FE5
S315000039D0635EE51637078000930500006358E5002F
S315000039E083A781C9930570FED377F510370780004A
S315000039F09306F7FFB3F6D70037064B0093D7774108
S31500003A00130606B2938717F8B387B7003386C60046
S31500003A103376E60083A5C1C83705803F3345A60047
S31500003A201383F600130707FF135676413365D50057
S31500003A303377E3005375B508B307F600631E070234
S31500003A40130700005327E5A06306071013050000BF
S31500003A50639607166780000003A541C99307000017
S31500003A605375F518678000005375A5089307000085
S31500003A705375F5186780000003A781CA37C635005D
S31500003A80130686285377E5001301C1FF03A3C1CBB4
S31500003A9023208100D375E5183767CFFF130707C3C7
S31500003AA03387E600B306D640B3E6E60003A7C1CAED
S31500003AB003A401CB53F607D0D3F2B510D3F35210BB
S31500003AC053F7E31053F363105377870003A401CC35
S31500003AD0537383005377771003A441CB537373104A
S31500003AE05377870003A441CC537383005377771031
S31500003AF05373731083A381CB537777005377571093
S31500003B0053776700635AD00683A601C6D376D510CD
S31500003B10D3F6A6105377D7005377B71063880706F6
S31500003B2083A701CA83A5C1C9D377F6105376B61009
S31500003B3053F7E70053F7E6085375A7085375A60829
S31500003B400324010013014100678000005375A5009E
S31500003B506780000083A641CA5377A5105376D51017
S31500003B6083A601C6D3F6C60853F7E6106396070286
S31500003B705375E508678000005377E5085377B7105B
S31500003B80639C07045375E5086FF09FFB53F7E6083F
S31500003B905375E5086FF0DFFAD3F707D083A601CA9D
S31500003BA003A6C1C9D3F6D710D3F7C7105377D708E2
S31500003BB05375A70853F5A7086780000003A5C1C978
S31500003BC0D3F707D003A701CA53F5A710D3F7E71019
S31500003BD05375F5006780000083A701CA83A6C1C993
S31500003BE0D377F6105376D6105377F7085375A70890
S31500003BF05375A6086FF0DFF403A581CC678000003B
S31500003C001306A000930500006F0040589306A0001D
S31500003C10130600006F00404F1303F0001307050062
S31500003C20637EC3029377F7006390070A63920508E1
S31500003C30937606FF1376F600B386E6002320B700D8
S31500003C402322B7002324B7002326B7001307070152
S31500003C50E366D7FE6314060067800000B306C34020
S31500003C609396260097020000B38656006780C6002A
S31500003C702307B700A306B7002306B700A305B700BE
S31500003C802305B700A304B7002304B700A303B700B6
S31500003C902303B700A302B7002302B700A301B700AE
S31500003CA02301B700A300B7002300B7006780000018
S31500003CB093F5F50F93968500B3E5D5009396050128
S31500003CC0B3E5D5006FF0DFF6939627009702000064
S31500003CD0B386560093820000E78006FA93800200BE
S31500003CE0938707FF3307F7403306F600E378C3F6FA
S31500003CF06FF0DFF33367B5009303F0FF13773700F8
S31500003D0063100710B7877F7F9387F7F703260500B1
S31500003D1083A60500B372F6003363F600B382F200A1
S31500003D20B3E26200639272106316D608032645005A
S31500003D3083A64500B372F6003363F600B382F20041
S31500003D40B3E26200639E720C6316D60603268500F4
S31500003D5083A68500B372F6003363F600B382F200E1
S31500003D60B3E262006398720C6316D6040326C5009C
S31500003D7083A6C500B372F6003363F600B382F20081
S31500003D80B3E262006392720C6316D6020326050143
S31500003D9083A60501B372F6003363F600B382F20020
S31500003DA0B3E26200639C720A1305450193854501DF
S31500003DB0E30ED6F41317060193970601631EF70068
S31500003DC01357060193D706013305F7409375F50F90
S31500003DD063900502678000001357070193D7070118
S31500003DE03305F7409375F50F63940500678000006F
S31500003DF01377F70F93F7F70F3305F7406780000047
S31500003E000346050083C605001305150093851500B6
S31500003E106314D600E31606FE3305D640678000001D
S31500003E201305450093854500E31CD6FC13050000E9
S31500003E30678000001305850093858500E312D6FC94
S31500003E4013050000678000001305C5009385C500B3
S31500003E50E318D6FA13050000678000001305050174
S31500003E6093850501E31ED6F8130500006780000060
S31500003E70B367B50093F737006392070803A70500F9
S31500003E80B7867F7F9386F6F7B377D700B387D700D9
S31500003E90B3E7E700B3E7D7001306F0FF639EC70654
S31500003EA0130605001303F0FF2320E60003A74500D1
S31500003EB09385450013064600B377D700B387D7002E
S31500003EC0B3E7E700B3E7D700E38067FE83C70500E3
S31500003ED003C7150083C625002300F600638A070082
S31500003EE0A300E600630607002301D60063940600DC
S31500003EF067800000A30106006780000093070500A5
S31500003F0003C705009387170093851500A38FE7FE67
S31500003F10E31807FE67800000130605006FF01FFB1D
S31500003F20130141FE2328A10037550000232C8100F0
S31500003F30232A9100138705002324B1002320C10002
S31500003F40130555A2834707009305070013071700BB
S31500003F503306F5000346060013768600E31406FED4
S31500003F601306D002638AC7121306B002638EC70611
S31500003F70B704008093C4F4FF232601006382060879
S31500003F8013060001138406006384C61233F6840206
S31500003F90930500001305000013039000930390019E
S31500003FA0B3D284022322C100138607FD6378C300BF
S31500003FB01386F7FB63E4C306138697FC6358D6069D
S31500003FC063CA05049305F0FF63EAA200638CA208A6
S31500003FD093051000330585023305A6001307170065
S31500003FE08347F7FF6FF05FFCB704008023260100CC
S31500003FF08347070093C4F4FF13872500E39206F86E
S31500004000930600036380D70E1304A0009306A00056
S315000040106FF0DFF79305F0FF6FF05FFC1386F7F99B
S3150000402063E6C300138697FAE34CD6F863C2050429
S315000040308327C100638407003305A040832701005E
S31500004040638A0700639E050A832701000327810010
S3150000405023A0E70003248101832441011301C10148
S315000040606780000083274100E3CAC7F66FF05FF65A
S3150000407083260101930720021385040023A0F6007E
S3150000408083270100E38807FC9307F7FF2324F10049
S31500004090138504006FF05FFB1306100083470700CB
S315000040A0B7040080138725002326C1006FF01FED9B
S315000040B013060003639AC7000346070093058005AD
S315000040C01376F60D6306B600130400016FF01FECBD
S315000040D08347170013040001130727009306000106
S315000040E06FF0DFEA834607001306800593F6F60DA8
S315000040F0E380C6FE13048000930680006FF01FE97C
S31500004100930405006FF05FF8130710006388E6005C
S31500004110130740026364D7006FF09FE0130141FF6D
S3150000412023241100EFB0DFF28320810093076001A2
S315000041302320F500130500001301C100678000006D
S31500004140130710006302E60213074002636EC700FE
S315000041509307050003A581CD930606001386050087
S31500004160938507006FF0DFDB130141FF2324110065
S31500004170EFB01FEE83208100930760012320F50036
S31500004180130500001301C10067800000130710002B
S315000041906302E60213074002636EC7009307050039
S315000041A003A581CD930606001386050093850700B7
S315000041B06FF01FD7130141FF23241100EFB05FE911
S315000041C083208100930760012320F500130500007A
S315000041D01301C10067800000130181FE3753000000
S315000041E0232A8100232891002326A1002320C10031
S315000041F013870500130353A283470700130507001F
S31500004200130717003306F3000346060013768600ED
S31500004210E31406FE1306D0026384C7121306B00227
S3150000422023240100638CC70863820602130600017B
S315000042306382C6121306F0FFB353D60293840600B8
S315000042403376D6022322C1006F0040029306000394
S315000042506380D71493065000B7A399192322D1007F
S31500004260938393999304A0009306A0001303000080
S31500004270130500009302900013049001138607FDB6
S3150000428063F8C2001386F7FB6364C404138697FCC5
S315000042906358D604634A03021303F0FF63EAA300DC
S315000042A0630A750633059502130310003305A6004D
S315000042B0130717008347F7FF6FF05FFC834707007C
S315000042C0130725006FF05FF61303F0FF6FF05FFE34
S315000042D01386F7F96366C400138697FAE34CD6FA99
S315000042E06340030483278100638407003305A040ED
S315000042F083270100638807006310030483270100F6
S3150000430023A0B70003244101832401011301810185
S315000043106780000083274100E3CCC7F86FF09FF861
S315000043208326C100930720021305F0FF23A0F600A1
S3150000433083270100E38807FC9305F7FF6FF01FFC56
S3150000434083470700130710002324E1001307250005
S315000043506FF09FED13060003639EC7060346070032
S31500004360130580051376F60D631AA6049306F0006E
S31500004370B7030010834717002322D1001307270035
S315000043809383F3FF93040001930600016FF01FEE81
S31500004390834607001306800593F6F60DE388C6FCF0
S315000043A093067000B70300202322D1009383F3FF06
S315000043B093048000930680006FF05FEB9303F0FF99
S315000043C01306F000B3D3D302930400012322C100E5
S315000043D06FF0DFE91306F000B70300102322C100D7
S315000043E09383F3FF930400016FF05FE86FF0DFDE65
S315000043F09307050003A581CD9306060013860500E5
S31500004400938507006FF05FDD9307050003A581CD57
S315000044109306060013860500938507006FF0DFDB21
S31500004420645F63616368655F666C757368282920DD
S315000044302532782025640A0072765F6361636865B9
S315000044405F666C7573682829202532782025640AF2
S3150000445000000000253038783A20000025303878F2
S3150000446020000000253032782000000072766D6F43
S315000044706E206C6F616465642E2025342E316620B3
S315000044804D487A0A4E70203D2025640A000000003F
S3150000449072766D6F6E242000200A00006400000012
S315000044A0647700006D770000207772697465206973
S315000044B06E63207061747465726E20746F206D6512
S315000044C06D6F727920402025782025642077640A54
S315000044D0000000006D7400007300000066616E3A13
S315000044E0257820743A25342E3166207663633A2582
S315000044F0342E32662025342E32662025342E32663E
S315000045000A00000066000000666C7573682025646A
S315000045100A00000063000000636C65616E2025647C
S315000045200A000000620000006F75743A20202538EA
S31500004530780A0000696E3A2020202538780A0000A3
S3150000454066696C743A202538780A000062696173DE
S315000045503A202538780A00007175616E743A202574
S3150000456038780A006D0000006D6F6E69203A2025CC
S31500004570640A0000737461676500000074726967FD
S31500004580207374616765203A2025640A00000000E4
S3150000459070000000253878203A20253038780A0047
S315000045A0770000006C0000002020206C6174656EAE
S315000045B063793A25372E3266206D732025352E33E2
S315000045C066206670730A00002532643A2025342E70
S315000045D03266206D730A00002020206C6174656EBF
S315000045E063793A25372E3266206D73202070726506
S315000045F0643A25342E3266206D73202072756E3A29
S3150000460025342E3266206D7320787264793A25340B
S315000046102E3266206D730A0020656C617073653AF0
S315000046202025352E3366206D730A000068000000D1
S3150000463020202020642F647720207B616464727DB3
S315000046400A202020207720207B40616464727D2030
S315000046507B646174617D0A20202020702020206107
S315000046606464722D2D0A2020202062202070726939
S315000046706E74206261736520616464720A20202072
S3150000468020662020636163686520666C7573680A1E
S3150000469020202020632020636163686520636C65A9
S315000046A0616E0A202020206520207072696E7420B9
S315000046B0656C61707365642074696D650A202020DD
S315000046C0206C20207072696E74206C6174656E6354
S315000046D0790A202020207374616765207B6E7D2017
S315000046E020747269672073746167650A00000000B0
S315000046F0780000002E0000006D656D7473742073E1
S31500004700746172740A207772697465203332626943
S315000047107420776F7264732E20206D656D5B695D02
S31500004720203D20266D656D5B695D3B000A25783A64
S31500004730000000000A20256420776F7264732077DA
S31500004740726F74650A20726561642033326269741F
S3150000475020776F72647320616E6420636865636B93
S31500004760000000000A20256420776F7264732072AF
S315000047706561640A2564206572726F72730A0000AF
S315000047800A0A207772697465203332626974207769
S315000047906F7264732E20206D656D5B695D203D2010
S315000047A072616E6428293B006D656D7473742073A5
S315000047B0746172740A20777269746520386269744C
S315000047C020776F7264732E20206D656D5B695D20A6
S315000047D03D20266D656D5B695D3B00000A20256402
S315000047E020776F7264732077726F74650A20726522
S315000047F06164203862697420776F72647320616E19
S315000048006420636865636B000A0A207772697465C1
S31500004810203862697420776F7264732E20206D656C
S315000048206D5B695D203D2072616E6428293B000046
S315000048300A0A2077726974652031366269742077B6
S315000048406F7264732E20206D656D5B695D203D205F
S3150000485072616E6428293B000A20256420776F72F6
S3150000486064732077726F74650A2072656164203103
S315000048703662697420776F72647320616E64206398
S315000048806865636B000000000A0A2072616E646F3F
S315000048906D20777269746520333262697420776F90
S315000048A07264732E20206D656D5B7072735D203DA2
S315000048B0207072732A343B0070703A206C656E3A31
S315000048C02564206C696465723A2530387820626503
S315000048D0763A253038782062616E6B3A2564205727
S315000048E03A256420424E4452593A25342E316620E8
S315000048F0617265613A25342E3266205234353A2586
S31500004900640A00002A2A20657869742829207469B7
S315000049106D65723A2025640A00000000FC2C000038
S31500004920542900005429000054290000542900008D
S31500004930542900005429000054290000542900007D
S315000049405429000054290000B02C0000802C0000DF
S3150000495054290000702B000054290000542900003F
S31500004960542900005429000054290000542900004D
S31500004970542900005429000054290000542900003D
S315000049805429000054290000D42A000054290000AC
S31500004990102D00005429000054290000802A000030
S315000049A02533643A2025730A000000001B5B304B58
S315000049B000000000A83500001C360000F03500009D
S315000049C0A8350000A8350000603500000836000054
S315000049D0A83500006037000068350000803500000B
S315000049E0A83500005037000068350000A8350000E3
S315000049F0A8350000A8350000A8350000A83500003D
S31500004A00A8350000A8350000A8350000A83500002C
S31500004A10A8350000A8350000A8350000A83500001C
S31500004A204436000000202020202020202020282896
S31500004A302828282020202020202020202020202058
S31500004A402020202020881010101010101010101098
S31500004A5010101010100404040404040404040410C8
S31500004A601010101010104141414141410101010156
S31500004A700101010101010101010101010101010120
S31500004A80101010101010424242424242020202022C
S31500004A9002020202020202020202020202020202F0
S31500004AA010101010200000000000000000000000A0
S31500004AB000000000000000000000000000000000F0
S31500004AC000000000000000000000000000000000E0
S31500004AD000000000000000000000000000000000D0
S31500004AE000000000000000000000000000000000C0
S31500004AF000000000000000000000000000000000B0
S31500004B00000000000000000000000000000000009F
S31500004B10000000000000000000000000000000008F
S30A00004B2000000000008A
S31500004B281000000000000000037A5200017C010119
S31500004B381B0D02002800000018000000D4CCFFFF5F
S31500004B486C03000000440E304C810188028903037F
S31500004B58DC020AC144C844C9440E00440B000000E4
S31500004B68240000004400000014D0FFFFD400000019
S31500004B7800440E304C81018802890302B4C144C83E
S30D00004B8844C9440E00000000C0
S31500004B900000C00000010002000400000100000047
S31500004BA078200000D020000000000000944E000095
S31500004BB0FC4E0000644F00000000000000000000F2
S31500004BC000000000000000000000000000000000DF
S31500004BD000000000000000000000000000000000CF
S31500004BE000000000000000000000000000000000BF
S31500004BF000000000000000000000000000000000AF
S31500004C00000000000000000000000000000000009E
S31500004C10000000000000000000000000000000008E
S31500004C20000000000000000000000000000000007E
S31500004C30000000000000000000000000000000006E
S31500004C40000000000000000000000000000000005E
S31500004C5001000000000000000E33CDAB34126DE6FB
S31500004C60ECDE05000B000000000000000000000064
S31500004C70000000000000000000000000000000002E
S31500004C80000000000000000000000000000000001E
S31500004C90000000000000000000000000000000000E
S31500004CA000000000000000000000000000000000FE
S31500004FD031A8FE3B8D1D8C43000070420000484204
S31500004FE0000020420000F04100007A440000E14742
S31500004FF00000003F6F12833ABD3786350000403807
S31500005000F304353F52B82EC05C8FA23F52B82E40F3
S3150000501000007F4200007F43000080420000803F86
S31500005020000080FF000000CC0000004C8071313F82
S31500005030D1F71737ABAAAA3E000000409788173E63
S3150000504025333A3E2549923EABAA2A3F4FD01C3E15
S31500005050298E633ECDCCCC3E0000C07FA84B00001D
S3110000506020BCBE4C01000000A84B000064
S70500000000FA
